:020000040800F2
:100000003802002001010008CF050008D1050008D2
:10001000D5050008D9050008DD050008000000002E
:10002000000000000000000000000000E1050008E2
:10003000E305000800000000E5050008E7050008EA
:100040001701000817010008170100081701000830
:100050001701000817010008170100081701000820
:100060001701000817010008170100081701000810
:100070001701000817010008170100081701000800
:1000800017010008170100081701000817010008F0
:1000900017010008170100081701000817010008E0
:1000A00017010008170100081701000817010008D0
:1000B00017010008C31D00081701000817010008F8
:1000C00017010008170100081701000817010008B0
:1000D00017010008170100081701000817010008A0
:1000E000170100081701000817010008DFF80CD0FD
:1000F00002F07EF900480047ED03000838020020B6
:1001000005480047FEE7FEE7FEE7FEE7FEE7FEE7FD
:10011000FEE7FEE7FEE7FEE7ED00000808B5012177
:10012000082000F065FD4020ADF8000010208DF89B
:10013000030003208DF802006946FE4800F0BCFA77
:1001400008BD002107E0002200E0521C42F6E063F7
:100150009A42FAD3491C8142F5D370472DE9F04FFA
:1001600097B083468A46584602F03FF80446F24A62
:10017000F24B01F048FFCDE91201584602F035F884
:1001800004460D46584602F030F88046EC4AED4BE6
:1001900001F039FF064622462B4601F034FFCDE937
:1001A0000E01584602F021F8CDE90601584602F04A
:1001B0001CF804460D46584602F017F80646E24A77
:1001C000E24B01F020FF804622462B4601F01BFF48
:1001D000CDE90401DDE9062301F015FFCDE90A01AF
:1001E000584602F002F880468946584601F0FDFF65
:1001F00004460D46584601F0F8FFCDE90201584685
:1002000001F0F3FF06460022134601F0FCFECDE9A3
:100210000001DDE9022301F0F6FE22462B46CDE97E
:10022000040101F0F0FE42464B46CDE9060101F023
:10023000EAFECDE90801DDE90A2301F03DFECDE942
:100240000C01DDE90E2301F037FECDE91001DDE9F7
:10025000122301F031FEBE4ABE4BCDE9140101F07C
:100260002BFECAE9000117B0BDE8F08F002106E0BF
:100270000A2100BF0A1EA1F1010399B2FAD1021EA0
:10028000A0F1010398B2F3D1704770B505460E4650
:10029000002404E0285DB04902F0E4F8641CB44294
:1002A000F8DB70BD2DE9F04186B0044615461E46C8
:1002B0001422AAA101A801F0EDFD04F1D000C0B202
:1002C0008DF807000022AA4B2846314601F09BFE1C
:1002D000074601F097FF00B2ADF80C00142101A809
:1002E000FFF7D3FF06B0BDE8F0812DE9F04F93B0E2
:1002F00082468B464FF00008DFF878929E499F486F
:10030000CDE91010CDE90E109D499E48CDE90C10A5
:10031000AAEB0B0001F058FF06460F469A480CC89E
:100320003046394601F069FECDE90401DDE91023CC
:1003300001F069FECDE90A0132463B46DDE90E01D6
:1003400001F061FECDE908018F480CC800204FF094
:10035000804101F058FE32463B46CDE9000101F0F4
:100360004FFECDE9020189480CC8029801F0A4FDB6
:10037000CDE90401DDE90C2301F045FECDE90601DC
:100380008349DDE90A2303C901F096FDCDE90201A5
:10039000DDE9082301F090FDCDE90401DDE9062344
:1003A00001F08AFD04460D460022134620462946E8
:1003B00001F060FF02D20024254608E042464B4689
:1003C0002046294601F06EFF01D244464D466E4953
:1003D00003C96E4A03C26C48C0C06D4830C0204695
:1003E000294601F00FFF13B0BDE8F08F8CB000BFBD
:1003F00000BF00200B900A900990089040F2CF2196
:10040000632001F0F9FC0021624801F0AFFB0120FC
:1004100061490860DAE04FF4FA70FFF792FE0A21B2
:100420001E20FFF762FF0890089881B2594801F03A
:100430009DFB00200A9009900B9010E0574801881E
:100440000A9808440A905548418809980844099038
:100450000A20FFF70BFF0B98401C80B20B900B9803
:10046000B0F57A7FEADB4FF47A710A98B0FBF1F0CD
:10047000039001F0BAFE0022494BCDE9040101F0DE
:10048000C2FD0022474BCDE9060101F02EFE0446D5
:100490000D464FF47A710998B0FBF1F0039001F02A
:1004A000A4FE00223E4BCDE9040101F0ACFD002288
:1004B0003C4BCDE9060101F018FE06460F462E4AD8
:1004C000394B2046294601F098FD0022374BCDE9F3
:1004D000000101F098FDCDE9020101F0B2FE3449BE
:1004E00051F82000059001F06FFE0022204BCDE96D
:1004F000060101F0FAFD804689461F4A2A4B304624
:10050000394601F07AFD0022284BCDE9000101F0C7
:100510007AFDCDE9020101F094FE254951F8200051
:10052000059001F051FE0022114BCDE9060101F0CA
:10053000DCFD3FE0000C014081A815F066BCA1BEC7
:10054000D8BA1C5389A7EE3D5B14EA9D77B22BBD48
:100550001D901138BD80463F34000020AA5500DDB3
:1005600000080000000056789ABCDEF000000D0A7A
:100570000000594000C058409A9999999999B93FFB
:100580007B14AE47E17A843F000000200800002081
:100590001000002000040040988121422C0000201F
:1005A000502D894000408F40999D86400000244096
:1005B0006824000882468B4642464B460020FFF7DF
:1005C00071FE52465B460120FFF76CFE23E7704741
:1005D00000BFFEE700BFFEE700BFFEE700BFFEE78B
:1005E000704770477047704710B50446C649601A97
:1005F0008C422FD009DCC548204480B1B0F5806F13
:1006000016D0B0F5006F4AD11BE0B0F5806F2AD04C
:10061000B0F5006F30D0B0F5406F40D135E001212A
:10062000042000F0FFFA0021042000F0FBFA37E07C
:100630000121082000F0F6FA0021082000F0F2FA6B
:100640002EE00121102000F0EDFA0021102000F032
:10065000E9FA25E00121202000F0E4FA0021202021
:1006600000F0E0FA1CE00121402000F0DBFA00215C
:10067000402000F0D7FA13E00121802000F0D2FAE8
:100680000021802000F0CEFA0AE00121080200F0EB
:10069000C9FA00214FF4807000F0C4FA00E000BFF6
:1006A00000BF10BD10B50121084600F0BBFA0021C3
:1006B000012000F0B7FA10BD2DE9F04102460025F7
:1006C0000026002000230024002791F803C00CF02E
:1006D0000F0591F803C00CF0100CBCF1000F03D013
:1006E00091F802C04CEA050591F800C0BCF1000F7A
:1006F00031D0146800202BE04FF0010C0CFA00F30D
:10070000B1F800C00CEA03069E4220D183004FF0EE
:100710000F0C0CFA03F7BC4305FA03FC4CEA040483
:1007200091F803C0BCF1280F06D14FF0010C0CFA70
:1007300000FCC2F814C00AE091F803C0BCF1480FF5
:1007400005D14FF0010C0CFA00FCC2F810C0401C9F
:100750000828D1D31460B1F800C0BCF1FF0F34DD1C
:10076000546800202EE000F1080C4FF0010808FA50
:100770000CF3B1F800C00CEA03069E4221D18300BD
:100780004FF00F0C0CFA03F7BC4305FA03FC4CEADC
:10079000040491F803C0BCF1280F05D100F1080C46
:1007A00008FA0CF8C2F8148091F803C0BCF1480FA5
:1007B00007D100F1080C4FF0010808FA0CF8C2F854
:1007C0001080401C0828CED35460BDE8F0814FF65D
:1007D000FF710180022181700421C17070470246BF
:1007E000002093680B400BB1012000E0002070470F
:1007F0000146886880B2704702460020D3680B40EB
:100800000BB1012000E0002070470146C86880B2AB
:10081000704701617047416170470AB1016100E0B2
:1008200041617047C16070474FF480320A43826172
:100830008161826182698269704702460020344B7F
:1008400018684FF68073184040EA02100843304B96
:10085000186070472F49C8617047F0B50A460023F9
:100860000024002100252A4E7168C0F3034583B29D
:1008700000F44016B6F5401F08D121F07061244EF7
:10088000766826F07066224F7E6012E000F48016D3
:10089000B6F5801F06D1032606FA05F4A14341F000
:1008A000706106E0460D360103FA06F6B14341F0E9
:1008B000706122B1460D360103FA06F63143144E3B
:1008C0007160F0BD30B500228B071C0F0F2303FAB7
:1008D00004F20F4B08338C1053F8243093430C4C24
:1008E00008348D1044F8253023468C1053F82430FA
:1008F0008C07240F00FA04F42343054C08348D10B0
:1009000044F8253030BD00000014014000F8FEBF5F
:100910000000014000002042DE48006840F0010075
:10092000DC49086008464068DB490840D94948600E
:1009300008460068D9490840D6490860084600685A
:1009400020F4802008600846406820F4FE004860DB
:10095000002088607047CF49096821F48031CD4A72
:1009600011601146096821F480211160B0F5803FC3
:1009700003D0B0F5802F0ED106E0C649096841F4D6
:100980008031C44A116007E0C249096841F4A021DE
:10099000C04A116000E000BF00BF704710B50146BB
:1009A0000022002300204A11012A02D1B94C2368F9
:1009B00006E0022A02D1B74C236A01E0B54C636A13
:1009C00001F01F02012494401C400CB1012000E002
:1009D000002010BD38B5002000900024002500BF85
:1009E0003120FFF7DBFF05460098401C00901DB941
:1009F0000098B0F5A06FF3D13120FFF7CFFF08B119
:100A0000012400E00024204638BD01460020A14A10
:100A1000106820F0F80040EAC10010607047A0495B
:100A200008607047024600209A4B586820F47C10FA
:100A300042EA01031843974B58607047984908668B
:100A4000704701460020934A506820F00300084395
:100A5000506070478F48406800F00C0070470146B6
:100A600000208C4A506820F0F00008435060704726
:100A700001460020874A506820F4E0600843506037
:100A8000704701460020834A506820F4605040EAD5
:100A9000C1005060704729B17E4A527A02437D4BB3
:100AA0005A7204E07B4A527A82437A4B5A727047F8
:100AB0007B49D8310860704701460020754A50686C
:100AC00020F440400843506070470021714A2032B2
:100AD0001170704A82F82010012802D004280AD12F
:100AE00004E001216B4A2032117005E00521694ABA
:100AF0002032117000E000BF00BF704769490860F4
:100B000070476449096A0143624A11627047654946
:100B100044390860704730B50021002200240023CA
:100B20005C4D6D6805F00C0121B1042905D0082940
:100B300023D105E05C4D056022E05B4D05601FE0C0
:100B4000544D6D6805F47012022505EB9242514D2B
:100B50006D6805F480341CB9544D554305600BE0B5
:100B60004C4D6D6805F400351DB1504D5543056081
:100B700002E04D4D5543056002E04B4D056000BF5E
:100B800000BF444D6D6805F0F0010909484D6B5CEC
:100B90000568DD4045603F4D6D6805F4E061090A78
:100BA000434D6B5C4568DD4085603A4D6D6805F4EA
:100BB0006051C90A3E4D6B5C4568DD40C560354DEE
:100BC0006D6805F44041890B3A4D6B5CC568B5FB17
:100BD000F3F5056130BD29B12E4A526902432D4B10
:100BE0005A6104E02B4A526982432A4B5A6170478A
:100BF00029B1284A92690243264B9A6104E0254AAA
:100C000092698243234B9A61704729B1214AD26984
:100C10000243204BDA6104E01E4AD26982431D4B35
:100C2000DA61704729B11B4AD2680243194BDA6076
:100C300004E0184AD2688243164BDA60704729B143
:100C4000144A12690243134B1A6104E0114A1269F3
:100C50008243104B1A61704712494039086070474F
:100C60000F49C86470470B49C87170470948406A0A
:100C700040F0807007494862704701460020054AED
:100C800092680A400AB1012000E000207047014943
:100C900088727047001002400000FFF8FFFFF6FE68
:100CA000000042428004424200127A0000093D00E6
:100CB000180000202800002010B50446D749601A0B
:100CC0008C422BD006DCD648204498B1B0F5806F1A
:100CD00038D119E0B0F5806F2AD0B0F56C4F31D122
:100CE00001218803FFF79EFF00214FF48040FFF7AA
:100CF00099FF28E001214804FFF7A1FF00214FF4EC
:100D00000030FFF79CFF1EE001218804FFF797FFEA
:100D100000214FF48020FFF792FF14E00121C80466
:100D2000FFF78DFF00214FF40020FFF788FF0AE056
:100D300001210805FFF783FF00214FF48010FFF722
:100D40007EFF00E000BF00BF10BD2DE9F04786B078
:100D500005460E460024A24600BF00BF00272F46CE
:100D60002C8A4CF6FF700440F08804432C82AC8936
:100D70004EF6F3100440B088318908437189084366
:100D80000443AC81AC8A4FF6FF400440B089044371
:100D9000AC8201A8FFF7BFFEA248874202D1DDF86E
:100DA00010A001E0DDF80CA00AEBCA0000EB0A106D
:100DB00031688900B0FBF1F86420B8FBF0F0040161
:100DC0002009642101FB1089322000EB0910B0FBDF
:100DD000F1F000F00F0004432C8106B0BDE8F0876D
:100DE0004FF41651016000218180C18001810C21E6
:100DF000418100218181704710B502460020108A90
:100E00004FF2FF0318400B884C8823438C88234300
:100E1000CC8823431843108210BD002101804180FB
:100E20008180C180704721B1828942F40052828161
:100E300004E082894DF6FF731A4082817047F0B555
:100E4000034600240026002500201846C1F3421462
:100E500001F01F06012707FA06F5012C01D10C301D
:100E600004E0022C01D1103000E014301AB1076800
:100E70002F43076002E00768AF430760F0BD1AB177
:100E8000838A0B43838202E0838A8B438382704789
:100E9000028A4FF6F0731A400282028A0A430282E3
:100EA000704782894FF2FF731A40828182890A4318
:100EB0008281704721B1828942F00202828104E07E
:100EC00082894FF6FD731A4082817047028A4FF67D
:100ED000DF731A400282028A0A430282704721B1FC
:100EE000028A42F48042028204E0028A4BF6FF73D7
:100EF0001A4002827047C1F308028280704701469F
:100F00008888C0F308007047818941F00101818120
:100F10007047028BD2B20283028B42EA0122028323
:100F20007047028B02F47F420283028B0A430283E2
:100F3000704721B1828A42F02002828204E0828AD4
:100F40004FF6DF731A408282704721B1828A42F0E5
:100F50001002828204E0828A4FF6EF731A40828286
:100F6000704721B1828A42F00802828204E0828ABC
:100F70004FF6F7731A4082827047828A4FF6FB73EE
:100F80001A408282828A0A438282704721B1828A11
:100F900042F00202828204E0828A4FF6FD731A4018
:100FA000828270470246002013880B400BB101205B
:100FB00000E000207047CA430280704770B50246C7
:100FC0000B460024002100250020C3F3421503F046
:100FD0001F01012606FA01F1012D02D19689314047
:100FE00006E0022D02D1168A314001E0968A314096
:100FF0001C12012606FA04F41688344011B10CB113
:10100000012000E0002070BD10B5002200230A126C
:1010100001249440A3B2DC43048010BD004C004086
:1010200000BCFFBF0038014010B50446F749601A04
:101030008C4245D00CDCB4F1804F1DD0F4482044E4
:1010400018B3B0F5806F29D0B0F5006F54D12EE001
:10105000B0F5806F3DD0B0F58E3F03D0B0F5923F34
:101060004AD13FE00121C802FFF7DCFD00214FF427
:101070000060FFF7D7FD40E001210846FFF7DFFDE4
:1010800000210120FFF7DBFD37E001210220FFF7FF
:10109000D6FD00210220FFF7D2FD2EE00121042021
:1010A000FFF7CDFD00210420FFF7C9FD25E0012158
:1010B0000820FFF7C4FD00210820FFF7C0FD1CE059
:1010C00001211020FFF7BBFD00211020FFF7B7FD25
:1010D00013E001212020FFF7B2FD00212020FFF7BF
:1010E000AEFD0AE001214803FFF79CFD00214FF40B
:1010F0000050FFF797FD00E000BF00BF10BD028861
:1011000002F08F020280CA884B881A4303881A4370
:1011100002808A8882850A880285BE4A904202D06F
:10112000BD4A904201D10A7A02860122828270472A
:1011300070B5002400220023058C4FF6FE76354062
:101140000584028C8388048B4FF68F752C400D88A4
:101150002C43751E2A400D892A434D882A43CD8889
:101160008586AC4DA84202D0AB4DA84213D14FF6B4
:10117000F7752A404D892A434FF6FB752A408D8822
:101180002A4347F6FF652B4047F6FF552B408D89D4
:101190002B43CD892B4383800483028470BD70B5BB
:1011A000002400220023058C4FF6EF76354005849D
:1011B000028C8388048B48F6FF752C400D884FF60F
:1011C000FF7606EA05252C434FF6DF752A400D8988
:1011D00006EA05152A434D8806EA05152A43CD88F7
:1011E00005878C4DA84202D08B4DA8421DD14FF6E9
:1011F0007F752A404D894FF6FF7606EA05152A438A
:101200004FF6BF752A408D8806EA05152A4347F632
:10121000FF352B4047F2FF752B408D8906EA850587
:101220002B43CD8906EA85052B4383800483028402
:1012300070BD70B5002400220023058C4FF6FF66B8
:1012400035400584028C8388848B4FF68F752C4043
:101250000D882C434FF6FF552A400D894FF6FF7637
:1012600006EA05252A434D8806EA05252A43CD8846
:101270008587684DA84202D0674DA8421DD14FF224
:10128000FF752A404D894FF6FF7606EA05252A4369
:101290004FF6FF352A408D8806EA05252A4346F693
:1012A000FF752B4045F6FF752B408D8906EA051525
:1012B0002B43CD8906EA05152B4383808483028462
:1012C00070BD70B5002400220023058C4EF6FF7619
:1012D00035400584028C8388848B48F6FF752C404A
:1012E0000D884FF6FF7606EA05252C434DF6FF756F
:1012F0002A400D8906EA05352A434D8806EA053558
:101300002A43CD88A0F84050424DA84202D0424D19
:10131000A84207D1C3F30D038D894FF6FF7606EA85
:1013200085152B4383808483028470BD828B4FF2AA
:10133000FF331A408283828B4FF6FF7303EA012347
:101340001A4382837047F0B50C46154600210022EF
:101350000026078C4EF6FF7C07EA0C070784818B7A
:10136000028C4FF6FF7707EA043640F6FF47394014
:101370004FF6FF7707EA05274FF6FF7C0CEA033CA0
:1013800047EA0C0739434DF6FF773A4046F4805759
:101390003A4381830284F0BD828B4FF6F3731A4087
:1013A0008283828B0A4382837047F0B50C461546D0
:1013B000002100220026078C4FF6FF6C07EA0C077D
:1013C0000784818B028C4FF6FF7707EA04264FF6DD
:1013D0000C7739404FF6FF7707EA03172F4339435D
:1013E0004FF6FF573A4046F480773A4381830284B0
:1013F000F0BD028B4FF2FF331A400283028B4FF68F
:10140000FF7303EA01231A43028370470010004070
:1014100000FCFFBF002C014000340140F0B50C4639
:101420001546002100220026078C4FF6EF7C07EAC4
:101430000C070784018B028C4FF6FF7707EA04162E
:1014400040F6FF4739404FF6FF7707EA0337394345
:101450004FF6FF7707EA052739434FF6DF773A4023
:1014600046F010073A4301830284F0BD028B4FF629
:10147000F3731A400283028B0A4302837047F0B56C
:101480000C46154600210022068C4FF6FE773E40A2
:101490000684018B028C4FF60C7631407E1C06EAE6
:1014A00003162E4331437E1E324044F00106324380
:1014B00001830284F0BD70B505460C46208850B902
:1014C0002389A28861882846FFF7D9FFE18828464A
:1014D000FFF7CCFF25E0208804280AD12389A288C1
:1014E00061882846FFF79AFFE1882846FFF781FFC9
:1014F00017E0208808280AD12389A2886188284615
:10150000FFF753FFE1882846FFF746FF09E02389EC
:10151000A28861882846FFF716FFE1882846FFF772
:1015200005FF70BD2DE9F04105460C460026012758
:10153000608808B9022600E00026A088012801D1B1
:10154000022700E001272088A0B92389A2886188AA
:101550002846FFF794FFE1882846FFF787FF238995
:101560003A4631462846FFF759FFE1882846FFF7FB
:1015700040FF13E02389A28861882846FFF74EFFC9
:10158000E1882846FFF735FF23893A463146284649
:10159000FFF775FFE1882846FFF768FFBDE8F08197
:1015A0000A884B881A438B881A43CB881A430B89C5
:1015B0001A434B891A438B891A43A0F84420704779
:1015C0004FF6FF71818000210180C180418001724E
:1015D00070470021018041808180C180018141816B
:1015E0008181C1817047002101804180012181807A
:1015F0000021C180018170470021018041808180EC
:10160000C180018141818181704721B1028842F00E
:101610000102028004E0028840F2FE331A40028098
:10162000704731B1B0F8442042F40042A0F84420A1
:1016300005E0B0F84420C2F30E02A0F84420704741
:101640001AB183890B43838102E083898B438381B1
:1016500070478182704741EA0203A0F84830704722
:101660001AB183890B43838102E083898B43838191
:10167000704701894FF6F8721140018170470A46A0
:10168000002101894FF68F73194011430181704782
:1016900030B504460D4629462046FFF7F0FF208965
:1016A00040F00700208130BD2DE9F04104460D4691
:1016B00016461F46602D06D13B4601223146204684
:1016C000FFF7ACFE05E03B46012231462046FFF71E
:1016D000D6FE29462046FFF7D2FF208940F00700BA
:1016E0002081BDE8F08170B50C4600210189C9B2A6
:1016F00044EA02054FF6FF7606EA032635432943FE
:10170000018170BD2DE9F04105460E461746984609
:10171000002443463A4631462846FFF7E4FF2C8929
:101720004FF6F870044044F007044FF68F70044001
:1017300044F070042C81BDE8F081F0B504460D46FC
:1017400016461F463B46324629462046FFF7CBFF4A
:10175000208940F480402081F0BD0185828270475D
:101760000A460021018840F28F331940114301805D
:101770007047F0B50C4615461E4600210022002396
:101780000189028B038C4FF6F877394021434FF6DD
:10179000FC473A4040F201173A434FF6DD773B40B1
:1017A0004FF6FF7707EA06172F433B430181028379
:1017B0000384F0BD0A460021018B4FF68F73194058
:1017C0001143018370470A460021018B48F6FF73DD
:1017D00019404FF6FF7303EA022319430183704750
:1017E0000A460021818B4FF68F7319401143818384
:1017F00070470A460021818B48F6FF7319404FF667
:10180000FF7303EA022319438183704721B10288E1
:1018100042F08002028004E0028840F27F331A40E6
:101820000280704721B1828842F00402828004E085
:1018300082884FF6FB731A408280704721B18288FC
:1018400042F00802828004E082884FF6F7731A4063
:101850008280704721B1828842F00102828004E0D8
:1018600082884FF6FE731A40828070470A46002134
:10187000018B4FF6F77319401143018370470A46F5
:101880000021018B4FF2FF7319404FF6FF7303EAFB
:1018900002231943018370470A460021818B4FF6CA
:1018A000F77319401143818370470A460021818BE9
:1018B0004FF2FF7319404FF6FF7303EA02231943F7
:1018C000818370470A460021018B4FF6FB73194054
:1018D0001143018370470A460021018B4FF6FF3305
:1018E00019404FF6FF7303EA02231943018370473F
:1018F0000A460021818B4FF6FB7319401143818307
:1019000070470A460021818B4FF6FF3319404FF68E
:10191000FF7303EA02231943818370470A460021BB
:10192000018B4FF67F7319401143018370470A46BC
:101930000021018BC1F30E014FF6FF7303EA02236E
:101940001943018370470A460021818B4FF67F734C
:1019500019401143818370470A460021818BC1F3EE
:101960000E014FF6FF7303EA022319438183704788
:101970000A460021018C4FF6FD7319401143018482
:1019800070470A460021018C4FF6F7731940114346
:10199000018470470A460021018C4FF6DF7319401D
:1019A0004FF6FF7303EA02131943018470470A4696
:1019B0000021018C4FF67F7319404FF6FF7303EA45
:1019C00002131943018470470A460021018C4FF627
:1019D000FF5319404FF6FF7303EA022319430184B2
:1019E00070470A460021018C4FF2FF7319404FF6F1
:1019F000FF7303EA02231943018470470A4600215A
:101A0000018C4DF6FF7319404FF6FF7303EA023362
:101A100019430184704710B5038C01248C40A34303
:101A20000384038C02FA01F4A4B22343038410BD9F
:101A300010B5038C04248C40A3430384038C02FA66
:101A400001F4A4B22343038410BD30B5038C0124F8
:101A50008C40A343038409B1082918D100F118036D
:101A600003EB61031B684FF68F74234000F11804E9
:101A700004EB6104236000F1180303EB61031B68AE
:101A8000134300F1180404EB610423601FE00B1FF3
:101A9000C3F34E0400F118031B5948F6FF742340AA
:101AA0000C1FC4F34E0500F1180463510B1FC3F360
:101AB0004E0400F118031B594FF6FF7404EA022488
:101AC00023430C1FC4F34E0500F11804635130BDCD
:101AD00021B1028842F00202028004E0028840F252
:101AE000FD331A400280704721B1028842F004029F
:101AF000028004E0028840F2FB331A400280704703
:101B000021B1828842F08002828004E082884FF610
:101B10007F731A4082807047028840F2F7331A4080
:101B2000028002880A430280704782884FF68F73D2
:101B30001A40828082880A438280704702894FF669
:101B4000F8731A40028102890A43028170470289B0
:101B50004FF67F731A40028102890A43028170475F
:101B600081847047818570478186704701877047FF
:101B700081877047A0F8401070470288D2B2028077
:101B800002880A43028070470146888E70470146EA
:101B9000088F70470146888F70470146B1F84000B2
:101BA00070470146888C70470146088D7047024691
:101BB0000020138A0B400BB1012000E00020704789
:101BC000CA430282704730B5024600200023002439
:101BD000158A05EA0103958905EA010413B10CB1E0
:101BE000012000E0002030BDCA430282704700009F
:101BF00031490143314A1160704770B5002100231B
:101C00000F22C47804B32D4C246804F4E064C4F5B6
:101C1000E064210AC1F10403CA40447804FA03F1E4
:101C20008478144021430901254C0678A155047895
:101C300004F01F050124AC4005786D11AD0005F1DD
:101C4000E025C5F8004109E0047804F01F050124EF
:101C5000AC401C4D0678761145F8264070BD1A4AF6
:101C60000A400243154B1B1F1A60704739B1134AD3
:101C7000121D12680243114B1B1D1A6006E00F4A29
:101C8000121D126882430D4B1B1D1A6070470428F9
:101C900008D14FF0E021096941F004014FF0E02242
:101CA000116107E04FF0E021096921F004014FF0D4
:101CB000E0221161704700000000FA050CED00E021
:101CC00000E400E080E100E080FFFF1F00B585B088
:101CD000012144F20400FEF78BFF4FF40070ADF8D1
:101CE000100018208DF8130003208DF8120004A9AD
:101CF0001B48FEF7E1FC4FF48060ADF810000420B3
:101D00008DF8130004A91648FEF7D6FC4FF4E13015
:101D100000900020ADF80400ADF80600ADF8080012
:101D2000ADF80C000C20ADF80A0069460D48FFF72D
:101D30000CF801210B48FFF776F805B000BD70B52F
:101D400004460D46E1B20748FFF7D5F800BF054845
:101D5000008800F080000028F9D0204670BD000007
:101D600000080140003801407FB505460C460121BE
:101D70000220FEF74AFFADF80850ADF804400020FD
:101D8000ADF80A00ADF8060001A93C48FFF7B7F925
:101D9000012211463948FFF753FC1D208DF8000041
:101DA00000208DF8010003208DF8020001208DF83D
:101DB00003006846FFF721FF01213048FFF725FCAB
:101DC0007FBD10B501212D48FFF7FDFE98B101211F
:101DD0002A48FFF709FF2A480068401C2849086084
:101DE000084600682749884205D127A000F012FB69
:101DF00000202349086010BD30B589B005460C4667
:101E000001210220FEF701FF01210920FEF7F0FE6B
:101E100001211E48FEF721FD2020ADF820001820EA
:101E20008DF8230003208DF8220008A91848FEF73A
:101E300043FCADF81850ADF814400020ADF81A007E
:101E4000ADF8160005A90D48FFF759F97020ADF857
:101E500004000120ADF806000020ADF80C0001A937
:101E60000648FFF79CF908210448FFF708FD012107
:101E70000248FFF7CAFB09B030BD00000004004073
:101E8000300000208038010031730A0000081A0079
:101E9000000C014040EA01039B0703D009E008C998
:101EA000121F08C0042AFAD203E011F8013B00F81F
:101EB000013B521EF9D270472DE9FE4F804681EA60
:101EC0000300C00F0C46009021F0004123F00045B4
:101ED000B8EB0200A94105D24046214690461C4677
:101EE0000B46024623F00040104347D0270DC7F3AE
:101EF0000A00C3F30A510290401A019040286BDA9D
:101F0000C3F3130040F4801B0098924620B10023D5
:101F1000D2EB030A63EB0B0B01985946C0F1400268
:101F2000504600F0D7F906460D4650465946019AEC
:101F300000F0EFF910EB08006141002487EA11522C
:101F400084EAE7731A4340D0009A62B3019A012AE7
:101F50004FEA075215DC001B61EB02014FF0004213
:101F600002EA0752CDE90042001C41F580113246D9
:101F70002B4600F0EFF903B0BDE8F08F4046214654
:101F8000F9E7001B61EB0201001C41F5801300180A
:101F90005B412018A2F5001747EB030140EAD5701A
:101FA000B6196D4111E06D084FEA360645EAC07575
:101FB0004FEA0752001B61EB0201001C41F5801142
:101FC00049084FEA30000019514132462B4603B010
:101FD000BDE8F04F00F0AFB90098012240000023A7
:101FE000D0EB020263EBE073009821464FEAE07405
:101FF000B8EB000061EB0401E9E783F000435BE725
:1020000081F0004158E72DE9FE4F81EA030404F016
:10201000004421F0004100944FF0000B23F00043F6
:1020200050EA01045ED052EA03045BD0C3F30A54C1
:10203000C1F30A552C44A4F2F3340194A0FB0254DA
:10204000C1F3130141F48011C3F3130343F480136C
:1020500001FB024400FB034E840A970A44EA8154C0
:1020600047EA8357A4FB076802958D0A05FB07859D
:102070004FEA932C04FB0C542705029D4FEA0658A7
:1020800047EA1637B5EB08056EEB070C870E920E84
:1020900047EA811742EA8312A7FB0201B6EB0B0164
:1020A00064EB00042B0D43EA0C335E1844EB1C5028
:1020B000DA465146E7FB0201C5F313044FEA0B333E
:1020C00043EA14534FEA0432019C43EA0603A4F1A5
:1020D0000C040294009CCDE900B400F03BF903B07D
:1020E000BDE8F08F00200146F9E72DE9F04D81EAC7
:1020F000030404F0004B21F0004514464FF0000AA1
:1021000023F0004150EA050220D054EA01021DD01C
:10211000C5F30A570246C5F31303C1F31300C1F315
:102120000A5640F4801543F48013A7EB0608101BF1
:10213000D64608F2FD3873EB050002D308F101081A
:1021400001E092185B41B8F1000F03DA002001466C
:10215000BDE8F08D00204FF48011064684460EE065
:10216000171B73EB050705D3121B63EB050306432F
:102170004CEA010C49084FEA300092185B4150EAE2
:102180000107EDD152EA030012D082EA040083EA8B
:102190000501084305D0101BAB4106D201220023E4
:1021A00006E000224FF0004302E06FF001025310FE
:1021B0001AEB06004CEB085110EB0A0041EB0B0147
:1021C000BDE8F04D00F0B7B80EB5C10F80EAE07081
:1021D0000844CA07002140F233438DE80E000A4646
:1021E0000B4600F0B7F803B000BD0EB540F2334126
:1021F00002910021CDE900110A460B4600F0AAF831
:1022000003B000BD70B5C1F30A5201F000450024CF
:10221000C1F3130140F2FF3341F480119A4201DA15
:10222000002070BD40F233439A42A2F2334203DCF5
:10223000524200F05EF800E090402C43F1D0404262
:1022400070BDC1F30A5210B5C1F3130140F2FF3360
:1022500041F480119A4201DA002010BD40F233436C
:102260009A42A2F2334203DC524200F042F810BD1F
:10227000904010BD30B5041E71F1000404DB4FF036
:102280000044404264EB0101141E73F1000405DBBD
:102290001C464FF00043524263EB04038B4208BFDD
:1022A000824230BD30B5041E71F1000404DB4FF0F2
:1022B0000044404264EB0101141E73F1000405DB8D
:1022C0001C464FF00043524263EB0403994208BF9F
:1022D000904230BD202A04DB203A00FA02F10020AF
:1022E00070479140C2F1200320FA03F31943904054
:1022F0007047202A04DB203A21FA02F000217047BF
:1023000021FA02F3D040C2F120029140084319465D
:102310007047202A06DBCB17203A41FA02F043EA45
:10232000E07306E041FA02F3D040C2F1200291408E
:1023300008431946704710B5141E73F1000408DAFB
:10234000401C41F1000192185B411A4301D120F079
:10235000010010BD2DE9F04D92469B4611B1B1FA36
:1023600081F202E0B0FA80F220329046FFF7B2FF2D
:1023700004460F4640EA0A0041EA0B0153465A461A
:10238000084313D0114653EA010019D0C8F14002A6
:102390005046FFF7AEFF05460E46504659464246A8
:1023A000FFF798FF084305D0012004E02046394696
:1023B000BDE8F08D0020054346EAE0762C43374324
:1023C0000A986305E40AA0EB08000022FD0A44EA2B
:1023D00047540A3002D500200146E9E701051019EB
:1023E0006941DDE9084500196941BDE8F04DA2E702
:1023F000064C074D06E0E06840F0010394E8070052
:1024000098471034AC42F6D3FDF774FE0834000848
:1024100028340008014A024900F013B83F1D0008A3
:102420003400002002E008C8121F08C1002AFAD1B7
:1024300070477047002001E001C1121F002AFBD144
:1024400070472DE9F04116460F460446002503E08B
:102450003946B047641C6D1C20780028F8D1284606
:10246000BDE8F081FFF76BBC000000000000000039
:10247000000000000000000000000000000000005C
:10248000000000000000000000000000000000004C
:10249000000000000000000000000000000000003C
:1024A000000000000000000000000000000000002C
:103400000000000000000000283400080000002038
:103410003800000024240008603400083800002030
:10342000000200003424000800000000000000003A
:10343000000000000000000000000000000000008C
:10344000000000000102030401020304060708094A
:103450000204060800000000000000000000000058
:0400000508000101ED
:00000001FF
